{
  "_format": "hh-sol-artifact-1",
  "contractName": "Telemed",
  "sourceName": "contracts/Telemed.sol",
  "abi": [
    {
      "anonymous": false,
      "inputs": [
        {
          "indexed": false,
          "internalType": "address",
          "name": "from",
          "type": "address"
        },
        {
          "indexed": false,
          "internalType": "address",
          "name": "to",
          "type": "address"
        },
        {
          "indexed": false,
          "internalType": "string",
          "name": "message",
          "type": "string"
        },
        {
          "indexed": false,
          "internalType": "uint256",
          "name": "blockNumber",
          "type": "uint256"
        },
        {
          "indexed": false,
          "internalType": "bytes32",
          "name": "blockHashNow",
          "type": "bytes32"
        }
      ],
      "name": "MessageEvent",
      "type": "event"
    },
    {
      "inputs": [],
      "name": "blockHashNow",
      "outputs": [
        {
          "internalType": "bytes32",
          "name": "",
          "type": "bytes32"
        }
      ],
      "stateMutability": "view",
      "type": "function"
    },
    {
      "inputs": [],
      "name": "blockHashPrevious",
      "outputs": [
        {
          "internalType": "bytes32",
          "name": "",
          "type": "bytes32"
        }
      ],
      "stateMutability": "view",
      "type": "function"
    },
    {
      "inputs": [],
      "name": "blockNumber",
      "outputs": [
        {
          "internalType": "uint256",
          "name": "",
          "type": "uint256"
        }
      ],
      "stateMutability": "view",
      "type": "function"
    },
    {
      "inputs": [
        {
          "internalType": "uint256",
          "name": "i",
          "type": "uint256"
        }
      ],
      "name": "getMessageIndex",
      "outputs": [
        {
          "components": [
            {
              "internalType": "address",
              "name": "from",
              "type": "address"
            },
            {
              "internalType": "address",
              "name": "to",
              "type": "address"
            },
            {
              "internalType": "string",
              "name": "message",
              "type": "string"
            },
            {
              "internalType": "uint256",
              "name": "blockNumber",
              "type": "uint256"
            },
            {
              "internalType": "bytes32",
              "name": "blockHashNow",
              "type": "bytes32"
            }
          ],
          "internalType": "struct Telemed.User",
          "name": "",
          "type": "tuple"
        }
      ],
      "stateMutability": "view",
      "type": "function"
    },
    {
      "inputs": [],
      "name": "getMessageLength",
      "outputs": [
        {
          "internalType": "uint256",
          "name": "",
          "type": "uint256"
        }
      ],
      "stateMutability": "view",
      "type": "function"
    },
    {
      "inputs": [
        {
          "internalType": "address",
          "name": "to",
          "type": "address"
        },
        {
          "internalType": "string",
          "name": "message",
          "type": "string"
        }
      ],
      "name": "sendMessage",
      "outputs": [],
      "stateMutability": "nonpayable",
      "type": "function"
    },
    {
      "inputs": [
        {
          "internalType": "uint256",
          "name": "",
          "type": "uint256"
        }
      ],
      "name": "userList",
      "outputs": [
        {
          "internalType": "address",
          "name": "from",
          "type": "address"
        },
        {
          "internalType": "address",
          "name": "to",
          "type": "address"
        },
        {
          "internalType": "string",
          "name": "message",
          "type": "string"
        },
        {
          "internalType": "uint256",
          "name": "blockNumber",
          "type": "uint256"
        },
        {
          "internalType": "bytes32",
          "name": "blockHashNow",
          "type": "bytes32"
        }
      ],
      "stateMutability": "view",
      "type": "function"
    }
  ],
  "bytecode": "0x608060405234801561001057600080fd5b50610e3c806100206000396000f3fe608060405234801561001057600080fd5b506004361061007d5760003560e01c8063740ba94d1161005b578063740ba94d146100dc5780639f4216e81461010c578063de6f24bb14610140578063f5701ede1461015c5761007d565b8063149dfec21461008257806357e871e7146100a057806370e35c11146100be575b600080fd5b61008a61017a565b6040516100979190610646565b60405180910390f35b6100a8610180565b6040516100b5919061067a565b60405180910390f35b6100c6610186565b6040516100d39190610646565b60405180910390f35b6100f660048036038101906100f191906106d5565b61018c565b6040516101039190610867565b60405180910390f35b610126600480360381019061012191906106d5565b61031a565b6040516101379594939291906108e2565b60405180910390f35b61015a60048036038101906101559190610a9d565b610428565b005b6101646105c2565b604051610171919061067a565b60405180910390f35b60015481565b60005481565b60025481565b6101946105cf565b600382815481106101a8576101a7610af9565b5b90600052602060002090600502016040518060a00160405290816000820160009054906101000a900473ffffffffffffffffffffffffffffffffffffffff1673ffffffffffffffffffffffffffffffffffffffff1673ffffffffffffffffffffffffffffffffffffffff1681526020016001820160009054906101000a900473ffffffffffffffffffffffffffffffffffffffff1673ffffffffffffffffffffffffffffffffffffffff1673ffffffffffffffffffffffffffffffffffffffff16815260200160028201805461027d90610b57565b80601f01602080910402602001604051908101604052809291908181526020018280546102a990610b57565b80156102f65780601f106102cb576101008083540402835291602001916102f6565b820191906000526020600020905b8154815290600101906020018083116102d957829003601f168201915b50505050508152602001600382015481526020016004820154815250509050919050565b6003818154811061032a57600080fd5b90600052602060002090600502016000915090508060000160009054906101000a900473ffffffffffffffffffffffffffffffffffffffff16908060010160009054906101000a900473ffffffffffffffffffffffffffffffffffffffff169080600201805461039990610b57565b80601f01602080910402602001604051908101604052809291908181526020018280546103c590610b57565b80156104125780601f106103e757610100808354040283529160200191610412565b820191906000526020600020905b8154815290600101906020018083116103f557829003601f168201915b5050505050908060030154908060040154905085565b436000819055506000544060018190555060006040518060a001604052803373ffffffffffffffffffffffffffffffffffffffff1681526020018473ffffffffffffffffffffffffffffffffffffffff16815260200183815260200160005481526020016001548152509050600381908060018154018082558091505060019003906000526020600020906005020160009091909190915060008201518160000160006101000a81548173ffffffffffffffffffffffffffffffffffffffff021916908373ffffffffffffffffffffffffffffffffffffffff16021790555060208201518160010160006101000a81548173ffffffffffffffffffffffffffffffffffffffff021916908373ffffffffffffffffffffffffffffffffffffffff16021790555060408201518160020190816105639190610d34565b50606082015181600301556080820151816004015550507f5f093f6e0c3dfeb18646dca451ea1fe802bd61b36aa9167e512c3518a78abf963384846000546001546040516105b59594939291906108e2565b60405180910390a1505050565b6000600380549050905090565b6040518060a00160405280600073ffffffffffffffffffffffffffffffffffffffff168152602001600073ffffffffffffffffffffffffffffffffffffffff1681526020016060815260200160008152602001600080191681525090565b6000819050919050565b6106408161062d565b82525050565b600060208201905061065b6000830184610637565b92915050565b6000819050919050565b61067481610661565b82525050565b600060208201905061068f600083018461066b565b92915050565b6000604051905090565b600080fd5b600080fd5b6106b281610661565b81146106bd57600080fd5b50565b6000813590506106cf816106a9565b92915050565b6000602082840312156106eb576106ea61069f565b5b60006106f9848285016106c0565b91505092915050565b600073ffffffffffffffffffffffffffffffffffffffff82169050919050565b600061072d82610702565b9050919050565b61073d81610722565b82525050565b600081519050919050565b600082825260208201905092915050565b60005b8381101561077d578082015181840152602081019050610762565b60008484015250505050565b6000601f19601f8301169050919050565b60006107a582610743565b6107af818561074e565b93506107bf81856020860161075f565b6107c881610789565b840191505092915050565b6107dc81610661565b82525050565b6107eb8161062d565b82525050565b600060a0830160008301516108096000860182610734565b50602083015161081c6020860182610734565b5060408301518482036040860152610834828261079a565b915050606083015161084960608601826107d3565b50608083015161085c60808601826107e2565b508091505092915050565b6000602082019050818103600083015261088181846107f1565b905092915050565b61089281610722565b82525050565b600082825260208201905092915050565b60006108b482610743565b6108be8185610898565b93506108ce81856020860161075f565b6108d781610789565b840191505092915050565b600060a0820190506108f76000830188610889565b6109046020830187610889565b818103604083015261091681866108a9565b9050610925606083018561066b565b6109326080830184610637565b9695505050505050565b61094581610722565b811461095057600080fd5b50565b6000813590506109628161093c565b92915050565b600080fd5b600080fd5b7f4e487b7100000000000000000000000000000000000000000000000000000000600052604160045260246000fd5b6109aa82610789565b810181811067ffffffffffffffff821117156109c9576109c8610972565b5b80604052505050565b60006109dc610695565b90506109e882826109a1565b919050565b600067ffffffffffffffff821115610a0857610a07610972565b5b610a1182610789565b9050602081019050919050565b82818337600083830152505050565b6000610a40610a3b846109ed565b6109d2565b905082815260208101848484011115610a5c57610a5b61096d565b5b610a67848285610a1e565b509392505050565b600082601f830112610a8457610a83610968565b5b8135610a94848260208601610a2d565b91505092915050565b60008060408385031215610ab457610ab361069f565b5b6000610ac285828601610953565b925050602083013567ffffffffffffffff811115610ae357610ae26106a4565b5b610aef85828601610a6f565b9150509250929050565b7f4e487b7100000000000000000000000000000000000000000000000000000000600052603260045260246000fd5b7f4e487b7100000000000000000000000000000000000000000000000000000000600052602260045260246000fd5b60006002820490506001821680610b6f57607f821691505b602082108103610b8257610b81610b28565b5b50919050565b60008190508160005260206000209050919050565b60006020601f8301049050919050565b600082821b905092915050565b600060088302610bea7fffffffffffffffffffffffffffffffffffffffffffffffffffffffffffffffff82610bad565b610bf48683610bad565b95508019841693508086168417925050509392505050565b6000819050919050565b6000610c31610c2c610c2784610661565b610c0c565b610661565b9050919050565b6000819050919050565b610c4b83610c16565b610c5f610c5782610c38565b848454610bba565b825550505050565b600090565b610c74610c67565b610c7f818484610c42565b505050565b5b81811015610ca357610c98600082610c6c565b600181019050610c85565b5050565b601f821115610ce857610cb981610b88565b610cc284610b9d565b81016020851015610cd1578190505b610ce5610cdd85610b9d565b830182610c84565b50505b505050565b600082821c905092915050565b6000610d0b60001984600802610ced565b1980831691505092915050565b6000610d248383610cfa565b9150826002028217905092915050565b610d3d82610743565b67ffffffffffffffff811115610d5657610d55610972565b5b610d608254610b57565b610d6b828285610ca7565b600060209050601f831160018114610d9e5760008415610d8c578287015190505b610d968582610d18565b865550610dfe565b601f198416610dac86610b88565b60005b82811015610dd457848901518255600182019150602085019450602081019050610daf565b86831015610df15784890151610ded601f891682610cfa565b8355505b6001600288020188555050505b50505050505056fea2646970667358221220fd5fbf35b90f9a2b674726204adcf693860ff396935fa65db5565fd1510bbc5664736f6c63430008110033",
  "linkReferences": {},
  "deployedLinkReferences": {}
}